{
  "_format": "hh-sol-artifact-1",
  "contractName": "Voting",
  "sourceName": "contracts/Voting.sol",
  "abi": [
    {
      "inputs": [
        {
          "internalType": "uint256",
          "name": "_durationInMinutes",
          "type": "uint256"
        },
        {
          "internalType": "address",
          "name": "_adminAddress",
          "type": "address"
        }
      ],
      "stateMutability": "nonpayable",
      "type": "constructor"
    },
    {
      "inputs": [
        {
          "internalType": "string",
          "name": "_name",
          "type": "string"
        },
        {
          "internalType": "uint256",
          "name": "_age",
          "type": "uint256"
        },
        {
          "internalType": "string",
          "name": "_candidateAddress",
          "type": "string"
        }
      ],
      "name": "addCandidate",
      "outputs": [],
      "stateMutability": "nonpayable",
      "type": "function"
    },
    {
      "inputs": [],
      "name": "admin",
      "outputs": [
        {
          "internalType": "address",
          "name": "",
          "type": "address"
        }
      ],
      "stateMutability": "view",
      "type": "function"
    },
    {
      "inputs": [
        {
          "internalType": "uint256",
          "name": "",
          "type": "uint256"
        }
      ],
      "name": "candidates",
      "outputs": [
        {
          "internalType": "string",
          "name": "name",
          "type": "string"
        },
        {
          "internalType": "uint256",
          "name": "age",
          "type": "uint256"
        },
        {
          "internalType": "string",
          "name": "candidateAddress",
          "type": "string"
        },
        {
          "internalType": "uint256",
          "name": "voteCount",
          "type": "uint256"
        }
      ],
      "stateMutability": "view",
      "type": "function"
    },
    {
      "inputs": [],
      "name": "getAllCandidates",
      "outputs": [
        {
          "components": [
            {
              "internalType": "string",
              "name": "name",
              "type": "string"
            },
            {
              "internalType": "uint256",
              "name": "age",
              "type": "uint256"
            },
            {
              "internalType": "string",
              "name": "candidateAddress",
              "type": "string"
            },
            {
              "internalType": "uint256",
              "name": "voteCount",
              "type": "uint256"
            }
          ],
          "internalType": "struct Voting.Candidate[]",
          "name": "",
          "type": "tuple[]"
        }
      ],
      "stateMutability": "view",
      "type": "function"
    },
    {
      "inputs": [],
      "name": "getCandidateCount",
      "outputs": [
        {
          "internalType": "uint256",
          "name": "",
          "type": "uint256"
        }
      ],
      "stateMutability": "view",
      "type": "function"
    },
    {
      "inputs": [],
      "name": "getRemainingTime",
      "outputs": [
        {
          "internalType": "uint256",
          "name": "",
          "type": "uint256"
        }
      ],
      "stateMutability": "view",
      "type": "function"
    },
    {
      "inputs": [],
      "name": "getVotingStatus",
      "outputs": [
        {
          "internalType": "bool",
          "name": "",
          "type": "bool"
        }
      ],
      "stateMutability": "view",
      "type": "function"
    },
    {
      "inputs": [
        {
          "internalType": "string",
          "name": "_name",
          "type": "string"
        },
        {
          "internalType": "uint256",
          "name": "_age",
          "type": "uint256"
        },
        {
          "internalType": "address",
          "name": "_voterAddress",
          "type": "address"
        }
      ],
      "name": "registerVoter",
      "outputs": [],
      "stateMutability": "nonpayable",
      "type": "function"
    },
    {
      "inputs": [
        {
          "internalType": "uint256",
          "name": "_durationInMinutes",
          "type": "uint256"
        }
      ],
      "name": "setVotingDuration",
      "outputs": [],
      "stateMutability": "nonpayable",
      "type": "function"
    },
    {
      "inputs": [],
      "name": "showTotalVoters",
      "outputs": [
        {
          "internalType": "uint256",
          "name": "",
          "type": "uint256"
        }
      ],
      "stateMutability": "view",
      "type": "function"
    },
    {
      "inputs": [],
      "name": "totalVoters",
      "outputs": [
        {
          "internalType": "uint256",
          "name": "",
          "type": "uint256"
        }
      ],
      "stateMutability": "view",
      "type": "function"
    },
    {
      "inputs": [
        {
          "internalType": "uint256",
          "name": "_candidateIndex",
          "type": "uint256"
        }
      ],
      "name": "vote",
      "outputs": [],
      "stateMutability": "nonpayable",
      "type": "function"
    },
    {
      "inputs": [
        {
          "internalType": "address",
          "name": "",
          "type": "address"
        }
      ],
      "name": "voters",
      "outputs": [
        {
          "internalType": "string",
          "name": "name",
          "type": "string"
        },
        {
          "internalType": "uint256",
          "name": "age",
          "type": "uint256"
        },
        {
          "internalType": "address",
          "name": "voterAddress",
          "type": "address"
        },
        {
          "internalType": "bool",
          "name": "hasVoted",
          "type": "bool"
        }
      ],
      "stateMutability": "view",
      "type": "function"
    },
    {
      "inputs": [],
      "name": "votingEnd",
      "outputs": [
        {
          "internalType": "uint256",
          "name": "",
          "type": "uint256"
        }
      ],
      "stateMutability": "view",
      "type": "function"
    },
    {
      "inputs": [],
      "name": "votingStart",
      "outputs": [
        {
          "internalType": "uint256",
          "name": "",
          "type": "uint256"
        }
      ],
      "stateMutability": "view",
      "type": "function"
    }
  ],
  "bytecode": "0x60806040523480156200001157600080fd5b5060405162001e2a38038062001e2a83398181016040528101906200003791906200018f565b600082116200007d576040517f08c379a00000000000000000000000000000000000000000000000000000000081526004016200007490620002a0565b60405180910390fd5b600073ffffffffffffffffffffffffffffffffffffffff168173ffffffffffffffffffffffffffffffffffffffff161415620000f0576040517f08c379a0000000000000000000000000000000000000000000000000000000008152600401620000e790620002c2565b60405180910390fd5b806000806101000a81548173ffffffffffffffffffffffffffffffffffffffff021916908373ffffffffffffffffffffffffffffffffffffffff16021790555042600381905550603c8262000146919062000352565b42620001539190620002f5565b600481905550505062000454565b600081519050620001728162000420565b92915050565b60008151905062000189816200043a565b92915050565b60008060408385031215620001a357600080fd5b6000620001b38582860162000178565b9250506020620001c68582860162000161565b9150509250929050565b6000620001df602983620002e4565b91507f566f74696e67206475726174696f6e206d75737420626520677265617465722060008301527f7468616e207a65726f00000000000000000000000000000000000000000000006020830152604082019050919050565b600062000247602483620002e4565b91507f41646d696e20616464726573732063616e6e6f74206265207a65726f2061646460008301527f72657373000000000000000000000000000000000000000000000000000000006020830152604082019050919050565b60006020820190508181036000830152620002bb81620001d0565b9050919050565b60006020820190508181036000830152620002dd8162000238565b9050919050565b600082825260208201905092915050565b60006200030282620003e7565b91506200030f83620003e7565b9250827fffffffffffffffffffffffffffffffffffffffffffffffffffffffffffffffff03821115620003475762000346620003f1565b5b828201905092915050565b60006200035f82620003e7565b91506200036c83620003e7565b9250817fffffffffffffffffffffffffffffffffffffffffffffffffffffffffffffffff0483118215151615620003a857620003a7620003f1565b5b828202905092915050565b6000620003c082620003c7565b9050919050565b600073ffffffffffffffffffffffffffffffffffffffff82169050919050565b6000819050919050565b7f4e487b7100000000000000000000000000000000000000000000000000000000600052601160045260246000fd5b6200042b81620003b3565b81146200043757600080fd5b50565b6200044581620003e7565b81146200045157600080fd5b50565b6119c680620004646000396000f3fe608060405234801561001057600080fd5b50600436106100f55760003560e01c80635bcfadb511610097578063a9be654a11610066578063a9be654a14610268578063e74f925214610286578063efb98bcf146102a2578063f851a440146102c0576100f5565b80635bcfadb5146101dd5780635f5300ff146101f957806385a3863514610217578063a3ec138d14610235576100f5565b806330a56347116100d357806330a56347146101525780633477ee2e146101705780634b841591146101a3578063581c281c146101bf576100f5565b80630121b93f146100fa578063101158af146101165780632e6997fe14610134575b600080fd5b610114600480360381019061010f919061104c565b6102de565b005b61011e610540565b60405161012b91906115f9565b60405180910390f35b61013c610546565b604051610149919061143d565b60405180910390f35b61015a6106dd565b60405161016791906115f9565b60405180910390f35b61018a6004803603810190610185919061104c565b6106ea565b60405161019a94939291906114c6565b60405180910390f35b6101bd60048036038101906101b89190610f66565b61083a565b005b6101c7610a74565b6040516101d4919061145f565b60405180910390f35b6101f760048036038101906101f2919061104c565b610a83565b005b610201610b32565b60405161020e91906115f9565b60405180910390f35b61021f610b38565b60405161022c91906115f9565b60405180910390f35b61024f600480360381019061024a9190610f3d565b610b3e565b60405161025f949392919061147a565b60405180910390f35b610270610c23565b60405161027d91906115f9565b60405180910390f35b6102a0600480360381019061029b9190610fcd565b610c2d565b005b6102aa610d5d565b6040516102b791906115f9565b60405180910390f35b6102c8610dca565b6040516102d59190611422565b60405180910390f35b6000600260003373ffffffffffffffffffffffffffffffffffffffff1673ffffffffffffffffffffffffffffffffffffffff1681526020019081526020016000206001015411610363576040517f08c379a000000000000000000000000000000000000000000000000000000000815260040161035a90611539565b60405180910390fd5b61036b610dee565b6103aa576040517f08c379a00000000000000000000000000000000000000000000000000000000081526004016103a190611599565b60405180910390fd5b600260003373ffffffffffffffffffffffffffffffffffffffff1673ffffffffffffffffffffffffffffffffffffffff16815260200190815260200160002060020160149054906101000a900460ff161561043a576040517f08c379a0000000000000000000000000000000000000000000000000000000008152600401610431906115d9565b60405180910390fd5b6001805490508110610481576040517f08c379a000000000000000000000000000000000000000000000000000000000815260040161047890611579565b60405180910390fd5b600181815481106104bb577f4e487b7100000000000000000000000000000000000000000000000000000000600052603260045260246000fd5b906000526020600020906004020160030160008154809291906104dd9061187b565b91905055506001600260003373ffffffffffffffffffffffffffffffffffffffff1673ffffffffffffffffffffffffffffffffffffffff16815260200190815260200160002060020160146101000a81548160ff02191690831515021790555050565b60035481565b60606001805480602002602001604051908101604052809291908181526020016000905b828210156106d4578382906000526020600020906004020160405180608001604052908160008201805461059d90611849565b80601f01602080910402602001604051908101604052809291908181526020018280546105c990611849565b80156106165780601f106105eb57610100808354040283529160200191610616565b820191906000526020600020905b8154815290600101906020018083116105f957829003601f168201915b505050505081526020016001820154815260200160028201805461063990611849565b80601f016020809104026020016040519081016040528092919081815260200182805461066590611849565b80156106b25780601f10610687576101008083540402835291602001916106b2565b820191906000526020600020905b81548152906001019060200180831161069557829003601f168201915b505050505081526020016003820154815250508152602001906001019061056a565b50505050905090565b6000600180549050905090565b600181815481106106fa57600080fd5b906000526020600020906004020160009150905080600001805461071d90611849565b80601f016020809104026020016040519081016040528092919081815260200182805461074990611849565b80156107965780601f1061076b57610100808354040283529160200191610796565b820191906000526020600020905b81548152906001019060200180831161077957829003601f168201915b5050505050908060010154908060020180546107b190611849565b80601f01602080910402602001604051908101604052809291908181526020018280546107dd90611849565b801561082a5780601f106107ff5761010080835404028352916020019161082a565b820191906000526020600020905b81548152906001019060200180831161080d57829003601f168201915b5050505050908060030154905084565b60008054906101000a900473ffffffffffffffffffffffffffffffffffffffff1673ffffffffffffffffffffffffffffffffffffffff163373ffffffffffffffffffffffffffffffffffffffff16146108c8576040517f08c379a00000000000000000000000000000000000000000000000000000000081526004016108bf90611519565b60405180910390fd5b6000600260008373ffffffffffffffffffffffffffffffffffffffff1673ffffffffffffffffffffffffffffffffffffffff168152602001908152602001600020600101541461094d576040517f08c379a0000000000000000000000000000000000000000000000000000000008152600401610944906115b9565b60405180910390fd5b60405180608001604052808481526020018381526020018273ffffffffffffffffffffffffffffffffffffffff16815260200160001515815250600260008373ffffffffffffffffffffffffffffffffffffffff1673ffffffffffffffffffffffffffffffffffffffff16815260200190815260200160002060008201518160000190805190602001906109e2929190610e08565b506020820151816001015560408201518160020160006101000a81548173ffffffffffffffffffffffffffffffffffffffff021916908373ffffffffffffffffffffffffffffffffffffffff16021790555060608201518160020160146101000a81548160ff02191690831515021790555090505060056000815480929190610a6a9061187b565b9190505550505050565b6000610a7e610dee565b905090565b60008054906101000a900473ffffffffffffffffffffffffffffffffffffffff1673ffffffffffffffffffffffffffffffffffffffff163373ffffffffffffffffffffffffffffffffffffffff1614610b11576040517f08c379a0000000000000000000000000000000000000000000000000000000008152600401610b0890611519565b60405180910390fd5b603c81610b1e9190611731565b42610b2991906116db565b60048190555050565b60055481565b60045481565b6002602052806000526040600020600091509050806000018054610b6190611849565b80601f0160208091040260200160405190810160405280929190818152602001828054610b8d90611849565b8015610bda5780601f10610baf57610100808354040283529160200191610bda565b820191906000526020600020905b815481529060010190602001808311610bbd57829003601f168201915b5050505050908060010154908060020160009054906101000a900473ffffffffffffffffffffffffffffffffffffffff16908060020160149054906101000a900460ff16905084565b6000600554905090565b60008054906101000a900473ffffffffffffffffffffffffffffffffffffffff1673ffffffffffffffffffffffffffffffffffffffff163373ffffffffffffffffffffffffffffffffffffffff1614610cbb576040517f08c379a0000000000000000000000000000000000000000000000000000000008152600401610cb290611519565b60405180910390fd5b60016040518060800160405280858152602001848152602001838152602001600081525090806001815401808255809150506001900390600052602060002090600402016000909190919091506000820151816000019080519060200190610d24929190610e08565b50602082015181600101556040820151816002019080519060200190610d4b929190610e08565b50606082015181600301555050505050565b6000600354421015610da4576040517f08c379a0000000000000000000000000000000000000000000000000000000008152600401610d9b90611559565b60405180910390fd5b6004544210610db65760009050610dc7565b42600454610dc4919061178b565b90505b90565b60008054906101000a900473ffffffffffffffffffffffffffffffffffffffff1681565b60006003544210158015610e03575060045442105b905090565b828054610e1490611849565b90600052602060002090601f016020900481019282610e365760008555610e7d565b82601f10610e4f57805160ff1916838001178555610e7d565b82800160010185558215610e7d579182015b82811115610e7c578251825591602001919060010190610e61565b5b509050610e8a9190610e8e565b5090565b5b80821115610ea7576000816000905550600101610e8f565b5090565b6000610ebe610eb984611645565b611614565b905082815260208101848484011115610ed657600080fd5b610ee1848285611807565b509392505050565b600081359050610ef881611962565b92915050565b600082601f830112610f0f57600080fd5b8135610f1f848260208601610eab565b91505092915050565b600081359050610f3781611979565b92915050565b600060208284031215610f4f57600080fd5b6000610f5d84828501610ee9565b91505092915050565b600080600060608486031215610f7b57600080fd5b600084013567ffffffffffffffff811115610f9557600080fd5b610fa186828701610efe565b9350506020610fb286828701610f28565b9250506040610fc386828701610ee9565b9150509250925092565b600080600060608486031215610fe257600080fd5b600084013567ffffffffffffffff811115610ffc57600080fd5b61100886828701610efe565b935050602061101986828701610f28565b925050604084013567ffffffffffffffff81111561103657600080fd5b61104286828701610efe565b9150509250925092565b60006020828403121561105e57600080fd5b600061106c84828501610f28565b91505092915050565b6000611081838361139a565b905092915050565b611092816117bf565b82525050565b60006110a382611685565b6110ad81856116a8565b9350836020820285016110bf85611675565b8060005b858110156110fb57848403895281516110dc8582611075565b94506110e78361169b565b925060208a019950506001810190506110c3565b50829750879550505050505092915050565b611116816117d1565b82525050565b600061112782611690565b61113181856116b9565b9350611141818560208601611816565b61114a81611951565b840191505092915050565b600061116082611690565b61116a81856116ca565b935061117a818560208601611816565b61118381611951565b840191505092915050565b600061119b6025836116ca565b91507f4f6e6c79207468652061646d696e2063616e2063616c6c20746869732066756e60008301527f6374696f6e0000000000000000000000000000000000000000000000000000006020830152604082019050919050565b6000611201602d836116ca565b91507f4f6e6c79207265676973746572656420766f746572732063616e2063616c6c2060008301527f746869732066756e6374696f6e000000000000000000000000000000000000006020830152604082019050919050565b6000611267601a836116ca565b91507f566f74696e6720686173206e6f742073746172746564207965740000000000006000830152602082019050919050565b60006112a76017836116ca565b91507f496e76616c69642063616e64696461746520696e6465780000000000000000006000830152602082019050919050565b60006112e7601c836116ca565b91507f566f74696e67206973206e6f742063757272656e746c79206f70656e000000006000830152602082019050919050565b6000611327601b836116ca565b91507f566f74657220697320616c7265616479207265676973746572656400000000006000830152602082019050919050565b60006113676016836116ca565b91507f596f75206861766520616c726561647920766f746564000000000000000000006000830152602082019050919050565b600060808301600083015184820360008601526113b7828261111c565b91505060208301516113cc6020860182611404565b50604083015184820360408601526113e4828261111c565b91505060608301516113f96060860182611404565b508091505092915050565b61140d816117fd565b82525050565b61141c816117fd565b82525050565b60006020820190506114376000830184611089565b92915050565b600060208201905081810360008301526114578184611098565b905092915050565b6000602082019050611474600083018461110d565b92915050565b600060808201905081810360008301526114948187611155565b90506114a36020830186611413565b6114b06040830185611089565b6114bd606083018461110d565b95945050505050565b600060808201905081810360008301526114e08187611155565b90506114ef6020830186611413565b81810360408301526115018185611155565b90506115106060830184611413565b95945050505050565b600060208201905081810360008301526115328161118e565b9050919050565b60006020820190508181036000830152611552816111f4565b9050919050565b600060208201905081810360008301526115728161125a565b9050919050565b600060208201905081810360008301526115928161129a565b9050919050565b600060208201905081810360008301526115b2816112da565b9050919050565b600060208201905081810360008301526115d28161131a565b9050919050565b600060208201905081810360008301526115f28161135a565b9050919050565b600060208201905061160e6000830184611413565b92915050565b6000604051905081810181811067ffffffffffffffff8211171561163b5761163a611922565b5b8060405250919050565b600067ffffffffffffffff8211156116605761165f611922565b5b601f19601f8301169050602081019050919050565b6000819050602082019050919050565b600081519050919050565b600081519050919050565b6000602082019050919050565b600082825260208201905092915050565b600082825260208201905092915050565b600082825260208201905092915050565b60006116e6826117fd565b91506116f1836117fd565b9250827fffffffffffffffffffffffffffffffffffffffffffffffffffffffffffffffff03821115611726576117256118c4565b5b828201905092915050565b600061173c826117fd565b9150611747836117fd565b9250817fffffffffffffffffffffffffffffffffffffffffffffffffffffffffffffffff04831182151516156117805761177f6118c4565b5b828202905092915050565b6000611796826117fd565b91506117a1836117fd565b9250828210156117b4576117b36118c4565b5b828203905092915050565b60006117ca826117dd565b9050919050565b60008115159050919050565b600073ffffffffffffffffffffffffffffffffffffffff82169050919050565b6000819050919050565b82818337600083830152505050565b60005b83811015611834578082015181840152602081019050611819565b83811115611843576000848401525b50505050565b6000600282049050600182168061186157607f821691505b60208210811415611875576118746118f3565b5b50919050565b6000611886826117fd565b91507fffffffffffffffffffffffffffffffffffffffffffffffffffffffffffffffff8214156118b9576118b86118c4565b5b600182019050919050565b7f4e487b7100000000000000000000000000000000000000000000000000000000600052601160045260246000fd5b7f4e487b7100000000000000000000000000000000000000000000000000000000600052602260045260246000fd5b7f4e487b7100000000000000000000000000000000000000000000000000000000600052604160045260246000fd5b6000601f19601f8301169050919050565b61196b816117bf565b811461197657600080fd5b50565b611982816117fd565b811461198d57600080fd5b5056fea2646970667358221220bd991c77a8aadc28e2e52d48c3c685af943727baf5f6caf5c567f5ff84ba475f64736f6c63430008000033",
  "linkReferences": {},
  "deployedLinkReferences": {}
}