{
  "_format": "hh-sol-artifact-1",
  "contractName": "Voting",
  "sourceName": "contracts/Voting.sol",
  "abi": [
    {
      "inputs": [
        {
          "internalType": "uint256",
          "name": "_durationInMinutes",
          "type": "uint256"
        },
        {
          "internalType": "address",
          "name": "_adminAddress",
          "type": "address"
        }
      ],
      "stateMutability": "nonpayable",
      "type": "constructor"
    },
    {
      "inputs": [
        {
          "internalType": "string",
          "name": "_name",
          "type": "string"
        },
        {
          "internalType": "uint256",
          "name": "_age",
          "type": "uint256"
        },
        {
          "internalType": "string",
          "name": "_candidateAddress",
          "type": "string"
        }
      ],
      "name": "addCandidate",
      "outputs": [],
      "stateMutability": "nonpayable",
      "type": "function"
    },
    {
      "inputs": [],
      "name": "admin",
      "outputs": [
        {
          "internalType": "address",
          "name": "",
          "type": "address"
        }
      ],
      "stateMutability": "view",
      "type": "function"
    },
    {
      "inputs": [
        {
          "internalType": "uint256",
          "name": "",
          "type": "uint256"
        }
      ],
      "name": "candidates",
      "outputs": [
        {
          "internalType": "string",
          "name": "name",
          "type": "string"
        },
        {
          "internalType": "uint256",
          "name": "age",
          "type": "uint256"
        },
        {
          "internalType": "string",
          "name": "candidateAddress",
          "type": "string"
        },
        {
          "internalType": "uint256",
          "name": "voteCount",
          "type": "uint256"
        }
      ],
      "stateMutability": "view",
      "type": "function"
    },
    {
      "inputs": [],
      "name": "getAllCandidates",
      "outputs": [
        {
          "components": [
            {
              "internalType": "string",
              "name": "name",
              "type": "string"
            },
            {
              "internalType": "uint256",
              "name": "age",
              "type": "uint256"
            },
            {
              "internalType": "string",
              "name": "candidateAddress",
              "type": "string"
            },
            {
              "internalType": "uint256",
              "name": "voteCount",
              "type": "uint256"
            }
          ],
          "internalType": "struct Voting.Candidate[]",
          "name": "",
          "type": "tuple[]"
        }
      ],
      "stateMutability": "view",
      "type": "function"
    },
    {
      "inputs": [],
      "name": "getAllVoters",
      "outputs": [
        {
          "components": [
            {
              "internalType": "string",
              "name": "name",
              "type": "string"
            },
            {
              "internalType": "uint256",
              "name": "age",
              "type": "uint256"
            },
            {
              "internalType": "address",
              "name": "voterAddress",
              "type": "address"
            },
            {
              "internalType": "bool",
              "name": "hasVoted",
              "type": "bool"
            }
          ],
          "internalType": "struct Voting.Voter[]",
          "name": "",
          "type": "tuple[]"
        }
      ],
      "stateMutability": "view",
      "type": "function"
    },
    {
      "inputs": [],
      "name": "getCandidateCount",
      "outputs": [
        {
          "internalType": "uint256",
          "name": "",
          "type": "uint256"
        }
      ],
      "stateMutability": "view",
      "type": "function"
    },
    {
      "inputs": [],
      "name": "getRemainingTime",
      "outputs": [
        {
          "internalType": "uint256",
          "name": "",
          "type": "uint256"
        }
      ],
      "stateMutability": "view",
      "type": "function"
    },
    {
      "inputs": [],
      "name": "getVotingStatus",
      "outputs": [
        {
          "internalType": "bool",
          "name": "",
          "type": "bool"
        }
      ],
      "stateMutability": "view",
      "type": "function"
    },
    {
      "inputs": [
        {
          "internalType": "address",
          "name": "_voterAddress",
          "type": "address"
        }
      ],
      "name": "isRegisteredVoter",
      "outputs": [
        {
          "internalType": "bool",
          "name": "",
          "type": "bool"
        }
      ],
      "stateMutability": "view",
      "type": "function"
    },
    {
      "inputs": [
        {
          "internalType": "string",
          "name": "_name",
          "type": "string"
        },
        {
          "internalType": "uint256",
          "name": "_age",
          "type": "uint256"
        },
        {
          "internalType": "address",
          "name": "_voterAddress",
          "type": "address"
        }
      ],
      "name": "registerVoter",
      "outputs": [],
      "stateMutability": "nonpayable",
      "type": "function"
    },
    {
      "inputs": [
        {
          "internalType": "uint256",
          "name": "_durationInMinutes",
          "type": "uint256"
        }
      ],
      "name": "setVotingDuration",
      "outputs": [],
      "stateMutability": "nonpayable",
      "type": "function"
    },
    {
      "inputs": [],
      "name": "showTotalVoters",
      "outputs": [
        {
          "internalType": "uint256",
          "name": "",
          "type": "uint256"
        }
      ],
      "stateMutability": "view",
      "type": "function"
    },
    {
      "inputs": [],
      "name": "totalVoters",
      "outputs": [
        {
          "internalType": "uint256",
          "name": "",
          "type": "uint256"
        }
      ],
      "stateMutability": "view",
      "type": "function"
    },
    {
      "inputs": [
        {
          "internalType": "uint256",
          "name": "_candidateIndex",
          "type": "uint256"
        }
      ],
      "name": "vote",
      "outputs": [],
      "stateMutability": "nonpayable",
      "type": "function"
    },
    {
      "inputs": [
        {
          "internalType": "address",
          "name": "",
          "type": "address"
        }
      ],
      "name": "voters",
      "outputs": [
        {
          "internalType": "string",
          "name": "name",
          "type": "string"
        },
        {
          "internalType": "uint256",
          "name": "age",
          "type": "uint256"
        },
        {
          "internalType": "address",
          "name": "voterAddress",
          "type": "address"
        },
        {
          "internalType": "bool",
          "name": "hasVoted",
          "type": "bool"
        }
      ],
      "stateMutability": "view",
      "type": "function"
    },
    {
      "inputs": [
        {
          "internalType": "uint256",
          "name": "",
          "type": "uint256"
        }
      ],
      "name": "votersByIndex",
      "outputs": [
        {
          "internalType": "address",
          "name": "",
          "type": "address"
        }
      ],
      "stateMutability": "view",
      "type": "function"
    },
    {
      "inputs": [],
      "name": "votingEnd",
      "outputs": [
        {
          "internalType": "uint256",
          "name": "",
          "type": "uint256"
        }
      ],
      "stateMutability": "view",
      "type": "function"
    },
    {
      "inputs": [],
      "name": "votingStart",
      "outputs": [
        {
          "internalType": "uint256",
          "name": "",
          "type": "uint256"
        }
      ],
      "stateMutability": "view",
      "type": "function"
    }
  ],
  "bytecode": "0x60806040523480156200001157600080fd5b506040516200241d3803806200241d83398181016040528101906200003791906200018f565b600082116200007d576040517f08c379a00000000000000000000000000000000000000000000000000000000081526004016200007490620002a0565b60405180910390fd5b600073ffffffffffffffffffffffffffffffffffffffff168173ffffffffffffffffffffffffffffffffffffffff161415620000f0576040517f08c379a0000000000000000000000000000000000000000000000000000000008152600401620000e790620002c2565b60405180910390fd5b806000806101000a81548173ffffffffffffffffffffffffffffffffffffffff021916908373ffffffffffffffffffffffffffffffffffffffff16021790555042600481905550603c8262000146919062000352565b42620001539190620002f5565b600581905550505062000454565b600081519050620001728162000420565b92915050565b60008151905062000189816200043a565b92915050565b60008060408385031215620001a357600080fd5b6000620001b38582860162000178565b9250506020620001c68582860162000161565b9150509250929050565b6000620001df602983620002e4565b91507f566f74696e67206475726174696f6e206d75737420626520677265617465722060008301527f7468616e207a65726f00000000000000000000000000000000000000000000006020830152604082019050919050565b600062000247602483620002e4565b91507f41646d696e20616464726573732063616e6e6f74206265207a65726f2061646460008301527f72657373000000000000000000000000000000000000000000000000000000006020830152604082019050919050565b60006020820190508181036000830152620002bb81620001d0565b9050919050565b60006020820190508181036000830152620002dd8162000238565b9050919050565b600082825260208201905092915050565b60006200030282620003e7565b91506200030f83620003e7565b9250827fffffffffffffffffffffffffffffffffffffffffffffffffffffffffffffffff03821115620003475762000346620003f1565b5b828201905092915050565b60006200035f82620003e7565b91506200036c83620003e7565b9250817fffffffffffffffffffffffffffffffffffffffffffffffffffffffffffffffff0483118215151615620003a857620003a7620003f1565b5b828202905092915050565b6000620003c082620003c7565b9050919050565b600073ffffffffffffffffffffffffffffffffffffffff82169050919050565b6000819050919050565b7f4e487b7100000000000000000000000000000000000000000000000000000000600052601160045260246000fd5b6200042b81620003b3565b81146200043757600080fd5b50565b6200044581620003e7565b81146200045157600080fd5b50565b611fb980620004646000396000f3fe608060405234801561001057600080fd5b50600436106101165760003560e01c80635f5300ff116100a2578063da36cffe11610071578063da36cffe146102c5578063e74f9252146102f5578063efb98bcf14610311578063f2dc48f01461032f578063f851a4401461035f57610116565b80635f5300ff1461023857806385a3863514610256578063a3ec138d14610274578063a9be654a146102a757610116565b80633477ee2e116100e95780633477ee2e1461019157806335bbe70e146101c45780634b841591146101e2578063581c281c146101fe5780635bcfadb51461021c57610116565b80630121b93f1461011b578063101158af146101375780632e6997fe1461015557806330a5634714610173575b600080fd5b610135600480360381019061013091906114da565b61037d565b005b61013f6105df565b60405161014c9190611bb3565b60405180910390f35b61015d6105e5565b60405161016a91906119d5565b60405180910390f35b61017b61077c565b6040516101889190611bb3565b60405180910390f35b6101ab60048036038101906101a691906114da565b610789565b6040516101bb9493929190611a80565b60405180910390f35b6101cc6108d9565b6040516101d991906119f7565b60405180910390f35b6101fc60048036038101906101f791906113f4565b610b98565b005b610206610e35565b6040516102139190611a19565b60405180910390f35b610236600480360381019061023191906114da565b610e44565b005b610240610ef3565b60405161024d9190611bb3565b60405180910390f35b61025e610ef9565b60405161026b9190611bb3565b60405180910390f35b61028e600480360381019061028991906113cb565b610eff565b60405161029e9493929190611a34565b60405180910390f35b6102af610fe4565b6040516102bc9190611bb3565b60405180910390f35b6102df60048036038101906102da91906113cb565b610fee565b6040516102ec9190611a19565b60405180910390f35b61030f600480360381019061030a919061145b565b61103c565b005b61031961116c565b6040516103269190611bb3565b60405180910390f35b610349600480360381019061034491906114da565b6111d9565b60405161035691906119ba565b60405180910390f35b610367611218565b60405161037491906119ba565b60405180910390f35b6000600260003373ffffffffffffffffffffffffffffffffffffffff1673ffffffffffffffffffffffffffffffffffffffff1681526020019081526020016000206001015411610402576040517f08c379a00000000000000000000000000000000000000000000000000000000081526004016103f990611af3565b60405180910390fd5b61040a61123c565b610449576040517f08c379a000000000000000000000000000000000000000000000000000000000815260040161044090611b53565b60405180910390fd5b600260003373ffffffffffffffffffffffffffffffffffffffff1673ffffffffffffffffffffffffffffffffffffffff16815260200190815260200160002060020160149054906101000a900460ff16156104d9576040517f08c379a00000000000000000000000000000000000000000000000000000000081526004016104d090611b93565b60405180910390fd5b6001805490508110610520576040517f08c379a000000000000000000000000000000000000000000000000000000000815260040161051790611b33565b60405180910390fd5b6001818154811061055a577f4e487b7100000000000000000000000000000000000000000000000000000000600052603260045260246000fd5b9060005260206000209060040201600301600081548092919061057c90611e6e565b91905055506001600260003373ffffffffffffffffffffffffffffffffffffffff1673ffffffffffffffffffffffffffffffffffffffff16815260200190815260200160002060020160146101000a81548160ff02191690831515021790555050565b60045481565b60606001805480602002602001604051908101604052809291908181526020016000905b82821015610773578382906000526020600020906004020160405180608001604052908160008201805461063c90611e3c565b80601f016020809104026020016040519081016040528092919081815260200182805461066890611e3c565b80156106b55780601f1061068a576101008083540402835291602001916106b5565b820191906000526020600020905b81548152906001019060200180831161069857829003601f168201915b50505050508152602001600182015481526020016002820180546106d890611e3c565b80601f016020809104026020016040519081016040528092919081815260200182805461070490611e3c565b80156107515780601f1061072657610100808354040283529160200191610751565b820191906000526020600020905b81548152906001019060200180831161073457829003601f168201915b5050505050815260200160038201548152505081526020019060010190610609565b50505050905090565b6000600180549050905090565b6001818154811061079957600080fd5b90600052602060002090600402016000915090508060000180546107bc90611e3c565b80601f01602080910402602001604051908101604052809291908181526020018280546107e890611e3c565b80156108355780601f1061080a57610100808354040283529160200191610835565b820191906000526020600020905b81548152906001019060200180831161081857829003601f168201915b50505050509080600101549080600201805461085090611e3c565b80601f016020809104026020016040519081016040528092919081815260200182805461087c90611e3c565b80156108c95780601f1061089e576101008083540402835291602001916108c9565b820191906000526020600020905b8154815290600101906020018083116108ac57829003601f168201915b5050505050908060030154905084565b6060600060065467ffffffffffffffff81111561091f577f4e487b7100000000000000000000000000000000000000000000000000000000600052604160045260246000fd5b60405190808252806020026020018201604052801561095857816020015b610945611256565b81526020019060019003908161093d5790505b5090506000805b600654811015610b8f576000600382815481106109a5577f4e487b7100000000000000000000000000000000000000000000000000000000600052603260045260246000fd5b9060005260206000200160009054906101000a900473ffffffffffffffffffffffffffffffffffffffff169050600260008273ffffffffffffffffffffffffffffffffffffffff1673ffffffffffffffffffffffffffffffffffffffff168152602001908152602001600020604051806080016040529081600082018054610a2c90611e3c565b80601f0160208091040260200160405190810160405280929190818152602001828054610a5890611e3c565b8015610aa55780601f10610a7a57610100808354040283529160200191610aa5565b820191906000526020600020905b815481529060010190602001808311610a8857829003601f168201915b50505050508152602001600182015481526020016002820160009054906101000a900473ffffffffffffffffffffffffffffffffffffffff1673ffffffffffffffffffffffffffffffffffffffff1673ffffffffffffffffffffffffffffffffffffffff1681526020016002820160149054906101000a900460ff161515151581525050848481518110610b62577f4e487b7100000000000000000000000000000000000000000000000000000000600052603260045260246000fd5b60200260200101819052508280610b7890611e6e565b935050508080610b8790611e6e565b91505061095f565b50819250505090565b60008054906101000a900473ffffffffffffffffffffffffffffffffffffffff1673ffffffffffffffffffffffffffffffffffffffff163373ffffffffffffffffffffffffffffffffffffffff1614610c26576040517f08c379a0000000000000000000000000000000000000000000000000000000008152600401610c1d90611ad3565b60405180910390fd5b6000600260008373ffffffffffffffffffffffffffffffffffffffff1673ffffffffffffffffffffffffffffffffffffffff1681526020019081526020016000206001015414610cab576040517f08c379a0000000000000000000000000000000000000000000000000000000008152600401610ca290611b73565b60405180910390fd5b60405180608001604052808481526020018381526020018273ffffffffffffffffffffffffffffffffffffffff16815260200160001515815250600260008373ffffffffffffffffffffffffffffffffffffffff1673ffffffffffffffffffffffffffffffffffffffff1681526020019081526020016000206000820151816000019080519060200190610d40929190611296565b506020820151816001015560408201518160020160006101000a81548173ffffffffffffffffffffffffffffffffffffffff021916908373ffffffffffffffffffffffffffffffffffffffff16021790555060608201518160020160146101000a81548160ff0219169083151502179055509050506003819080600181540180825580915050600190039060005260206000200160009091909190916101000a81548173ffffffffffffffffffffffffffffffffffffffff021916908373ffffffffffffffffffffffffffffffffffffffff16021790555060066000815480929190610e2b90611e6e565b9190505550505050565b6000610e3f61123c565b905090565b60008054906101000a900473ffffffffffffffffffffffffffffffffffffffff1673ffffffffffffffffffffffffffffffffffffffff163373ffffffffffffffffffffffffffffffffffffffff1614610ed2576040517f08c379a0000000000000000000000000000000000000000000000000000000008152600401610ec990611ad3565b60405180910390fd5b603c81610edf9190611d24565b42610eea9190611cce565b60058190555050565b60065481565b60055481565b6002602052806000526040600020600091509050806000018054610f2290611e3c565b80601f0160208091040260200160405190810160405280929190818152602001828054610f4e90611e3c565b8015610f9b5780601f10610f7057610100808354040283529160200191610f9b565b820191906000526020600020905b815481529060010190602001808311610f7e57829003601f168201915b5050505050908060010154908060020160009054906101000a900473ffffffffffffffffffffffffffffffffffffffff16908060020160149054906101000a900460ff16905084565b6000600654905090565b600080600260008473ffffffffffffffffffffffffffffffffffffffff1673ffffffffffffffffffffffffffffffffffffffff16815260200190815260200160002060010154119050919050565b60008054906101000a900473ffffffffffffffffffffffffffffffffffffffff1673ffffffffffffffffffffffffffffffffffffffff163373ffffffffffffffffffffffffffffffffffffffff16146110ca576040517f08c379a00000000000000000000000000000000000000000000000000000000081526004016110c190611ad3565b60405180910390fd5b60016040518060800160405280858152602001848152602001838152602001600081525090806001815401808255809150506001900390600052602060002090600402016000909190919091506000820151816000019080519060200190611133929190611296565b5060208201518160010155604082015181600201908051906020019061115a929190611296565b50606082015181600301555050505050565b60006004544210156111b3576040517f08c379a00000000000000000000000000000000000000000000000000000000081526004016111aa90611b13565b60405180910390fd5b60055442106111c557600090506111d6565b426005546111d39190611d7e565b90505b90565b600381815481106111e957600080fd5b906000526020600020016000915054906101000a900473ffffffffffffffffffffffffffffffffffffffff1681565b60008054906101000a900473ffffffffffffffffffffffffffffffffffffffff1681565b60006004544210158015611251575060055442105b905090565b60405180608001604052806060815260200160008152602001600073ffffffffffffffffffffffffffffffffffffffff1681526020016000151581525090565b8280546112a290611e3c565b90600052602060002090601f0160209004810192826112c4576000855561130b565b82601f106112dd57805160ff191683800117855561130b565b8280016001018555821561130b579182015b8281111561130a5782518255916020019190600101906112ef565b5b509050611318919061131c565b5090565b5b8082111561133557600081600090555060010161131d565b5090565b600061134c61134784611bff565b611bce565b90508281526020810184848401111561136457600080fd5b61136f848285611dfa565b509392505050565b60008135905061138681611f55565b92915050565b600082601f83011261139d57600080fd5b81356113ad848260208601611339565b91505092915050565b6000813590506113c581611f6c565b92915050565b6000602082840312156113dd57600080fd5b60006113eb84828501611377565b91505092915050565b60008060006060848603121561140957600080fd5b600084013567ffffffffffffffff81111561142357600080fd5b61142f8682870161138c565b9350506020611440868287016113b6565b925050604061145186828701611377565b9150509250925092565b60008060006060848603121561147057600080fd5b600084013567ffffffffffffffff81111561148a57600080fd5b6114968682870161138c565b93505060206114a7868287016113b6565b925050604084013567ffffffffffffffff8111156114c457600080fd5b6114d08682870161138c565b9150509250925092565b6000602082840312156114ec57600080fd5b60006114fa848285016113b6565b91505092915050565b600061150f83836118cf565b905092915050565b60006115238383611939565b905092915050565b61153481611db2565b82525050565b61154381611db2565b82525050565b600061155482611c4f565b61155e8185611c8a565b93508360208202850161157085611c2f565b8060005b858110156115ac578484038952815161158d8582611503565b945061159883611c70565b925060208a01995050600181019050611574565b50829750879550505050505092915050565b60006115c982611c5a565b6115d38185611c9b565b9350836020820285016115e585611c3f565b8060005b8581101561162157848403895281516116028582611517565b945061160d83611c7d565b925060208a019950506001810190506115e9565b50829750879550505050505092915050565b61163c81611dc4565b82525050565b61164b81611dc4565b82525050565b600061165c82611c65565b6116668185611cac565b9350611676818560208601611e09565b61167f81611f44565b840191505092915050565b600061169582611c65565b61169f8185611cbd565b93506116af818560208601611e09565b6116b881611f44565b840191505092915050565b60006116d0602583611cbd565b91507f4f6e6c79207468652061646d696e2063616e2063616c6c20746869732066756e60008301527f6374696f6e0000000000000000000000000000000000000000000000000000006020830152604082019050919050565b6000611736602d83611cbd565b91507f4f6e6c79207265676973746572656420766f746572732063616e2063616c6c2060008301527f746869732066756e6374696f6e000000000000000000000000000000000000006020830152604082019050919050565b600061179c601a83611cbd565b91507f566f74696e6720686173206e6f742073746172746564207965740000000000006000830152602082019050919050565b60006117dc601783611cbd565b91507f496e76616c69642063616e64696461746520696e6465780000000000000000006000830152602082019050919050565b600061181c601c83611cbd565b91507f566f74696e67206973206e6f742063757272656e746c79206f70656e000000006000830152602082019050919050565b600061185c601b83611cbd565b91507f566f74657220697320616c7265616479207265676973746572656400000000006000830152602082019050919050565b600061189c601683611cbd565b91507f596f75206861766520616c726561647920766f746564000000000000000000006000830152602082019050919050565b600060808301600083015184820360008601526118ec8282611651565b9150506020830151611901602086018261199c565b50604083015184820360408601526119198282611651565b915050606083015161192e606086018261199c565b508091505092915050565b600060808301600083015184820360008601526119568282611651565b915050602083015161196b602086018261199c565b50604083015161197e604086018261152b565b5060608301516119916060860182611633565b508091505092915050565b6119a581611df0565b82525050565b6119b481611df0565b82525050565b60006020820190506119cf600083018461153a565b92915050565b600060208201905081810360008301526119ef8184611549565b905092915050565b60006020820190508181036000830152611a1181846115be565b905092915050565b6000602082019050611a2e6000830184611642565b92915050565b60006080820190508181036000830152611a4e818761168a565b9050611a5d60208301866119ab565b611a6a604083018561153a565b611a776060830184611642565b95945050505050565b60006080820190508181036000830152611a9a818761168a565b9050611aa960208301866119ab565b8181036040830152611abb818561168a565b9050611aca60608301846119ab565b95945050505050565b60006020820190508181036000830152611aec816116c3565b9050919050565b60006020820190508181036000830152611b0c81611729565b9050919050565b60006020820190508181036000830152611b2c8161178f565b9050919050565b60006020820190508181036000830152611b4c816117cf565b9050919050565b60006020820190508181036000830152611b6c8161180f565b9050919050565b60006020820190508181036000830152611b8c8161184f565b9050919050565b60006020820190508181036000830152611bac8161188f565b9050919050565b6000602082019050611bc860008301846119ab565b92915050565b6000604051905081810181811067ffffffffffffffff82111715611bf557611bf4611f15565b5b8060405250919050565b600067ffffffffffffffff821115611c1a57611c19611f15565b5b601f19601f8301169050602081019050919050565b6000819050602082019050919050565b6000819050602082019050919050565b600081519050919050565b600081519050919050565b600081519050919050565b6000602082019050919050565b6000602082019050919050565b600082825260208201905092915050565b600082825260208201905092915050565b600082825260208201905092915050565b600082825260208201905092915050565b6000611cd982611df0565b9150611ce483611df0565b9250827fffffffffffffffffffffffffffffffffffffffffffffffffffffffffffffffff03821115611d1957611d18611eb7565b5b828201905092915050565b6000611d2f82611df0565b9150611d3a83611df0565b9250817fffffffffffffffffffffffffffffffffffffffffffffffffffffffffffffffff0483118215151615611d7357611d72611eb7565b5b828202905092915050565b6000611d8982611df0565b9150611d9483611df0565b925082821015611da757611da6611eb7565b5b828203905092915050565b6000611dbd82611dd0565b9050919050565b60008115159050919050565b600073ffffffffffffffffffffffffffffffffffffffff82169050919050565b6000819050919050565b82818337600083830152505050565b60005b83811015611e27578082015181840152602081019050611e0c565b83811115611e36576000848401525b50505050565b60006002820490506001821680611e5457607f821691505b60208210811415611e6857611e67611ee6565b5b50919050565b6000611e7982611df0565b91507fffffffffffffffffffffffffffffffffffffffffffffffffffffffffffffffff821415611eac57611eab611eb7565b5b600182019050919050565b7f4e487b7100000000000000000000000000000000000000000000000000000000600052601160045260246000fd5b7f4e487b7100000000000000000000000000000000000000000000000000000000600052602260045260246000fd5b7f4e487b7100000000000000000000000000000000000000000000000000000000600052604160045260246000fd5b6000601f19601f8301169050919050565b611f5e81611db2565b8114611f6957600080fd5b50565b611f7581611df0565b8114611f8057600080fd5b5056fea264697066735822122098e15f528b68217ab57c9b08fc87878b79c03b0a1bdaa627051ef1848c0b1de264736f6c63430008000033",
  "linkReferences": {},
  "deployedLinkReferences": {}
}