{
  "_format": "hh-sol-artifact-1",
  "contractName": "Voting",
  "sourceName": "contracts/Voting.sol",
  "abi": [
    {
      "inputs": [
        {
          "internalType": "uint256",
          "name": "_durationInMinutes",
          "type": "uint256"
        },
        {
          "internalType": "address",
          "name": "_adminAddress",
          "type": "address"
        }
      ],
      "stateMutability": "nonpayable",
      "type": "constructor"
    },
    {
      "inputs": [
        {
          "internalType": "string",
          "name": "_name",
          "type": "string"
        },
        {
          "internalType": "uint256",
          "name": "_age",
          "type": "uint256"
        },
        {
          "internalType": "string",
          "name": "_candidateAddress",
          "type": "string"
        }
      ],
      "name": "addCandidate",
      "outputs": [],
      "stateMutability": "nonpayable",
      "type": "function"
    },
    {
      "inputs": [],
      "name": "admin",
      "outputs": [
        {
          "internalType": "address",
          "name": "",
          "type": "address"
        }
      ],
      "stateMutability": "view",
      "type": "function"
    },
    {
      "inputs": [
        {
          "internalType": "uint256",
          "name": "",
          "type": "uint256"
        }
      ],
      "name": "candidates",
      "outputs": [
        {
          "internalType": "string",
          "name": "name",
          "type": "string"
        },
        {
          "internalType": "uint256",
          "name": "age",
          "type": "uint256"
        },
        {
          "internalType": "string",
          "name": "candidateAddress",
          "type": "string"
        },
        {
          "internalType": "uint256",
          "name": "voteCount",
          "type": "uint256"
        }
      ],
      "stateMutability": "view",
      "type": "function"
    },
    {
      "inputs": [],
      "name": "getAllCandidates",
      "outputs": [
        {
          "components": [
            {
              "internalType": "string",
              "name": "name",
              "type": "string"
            },
            {
              "internalType": "uint256",
              "name": "age",
              "type": "uint256"
            },
            {
              "internalType": "string",
              "name": "candidateAddress",
              "type": "string"
            },
            {
              "internalType": "uint256",
              "name": "voteCount",
              "type": "uint256"
            }
          ],
          "internalType": "struct Voting.Candidate[]",
          "name": "",
          "type": "tuple[]"
        }
      ],
      "stateMutability": "view",
      "type": "function"
    },
    {
      "inputs": [],
      "name": "getAllVoters",
      "outputs": [
        {
          "components": [
            {
              "internalType": "string",
              "name": "name",
              "type": "string"
            },
            {
              "internalType": "uint256",
              "name": "age",
              "type": "uint256"
            },
            {
              "internalType": "address",
              "name": "voterAddress",
              "type": "address"
            },
            {
              "internalType": "bool",
              "name": "hasVoted",
              "type": "bool"
            }
          ],
          "internalType": "struct Voting.Voter[]",
          "name": "",
          "type": "tuple[]"
        }
      ],
      "stateMutability": "view",
      "type": "function"
    },
    {
      "inputs": [],
      "name": "getCandidateCount",
      "outputs": [
        {
          "internalType": "uint256",
          "name": "",
          "type": "uint256"
        }
      ],
      "stateMutability": "view",
      "type": "function"
    },
    {
      "inputs": [],
      "name": "getRemainingTime",
      "outputs": [
        {
          "internalType": "uint256",
          "name": "",
          "type": "uint256"
        }
      ],
      "stateMutability": "view",
      "type": "function"
    },
    {
      "inputs": [],
      "name": "getVotingStatus",
      "outputs": [
        {
          "internalType": "bool",
          "name": "",
          "type": "bool"
        }
      ],
      "stateMutability": "view",
      "type": "function"
    },
    {
      "inputs": [
        {
          "internalType": "string",
          "name": "_name",
          "type": "string"
        },
        {
          "internalType": "uint256",
          "name": "_age",
          "type": "uint256"
        },
        {
          "internalType": "address",
          "name": "_voterAddress",
          "type": "address"
        }
      ],
      "name": "registerVoter",
      "outputs": [],
      "stateMutability": "nonpayable",
      "type": "function"
    },
    {
      "inputs": [
        {
          "internalType": "uint256",
          "name": "_durationInMinutes",
          "type": "uint256"
        }
      ],
      "name": "setVotingDuration",
      "outputs": [],
      "stateMutability": "nonpayable",
      "type": "function"
    },
    {
      "inputs": [],
      "name": "showTotalVoters",
      "outputs": [
        {
          "internalType": "uint256",
          "name": "",
          "type": "uint256"
        }
      ],
      "stateMutability": "view",
      "type": "function"
    },
    {
      "inputs": [],
      "name": "totalVoters",
      "outputs": [
        {
          "internalType": "uint256",
          "name": "",
          "type": "uint256"
        }
      ],
      "stateMutability": "view",
      "type": "function"
    },
    {
      "inputs": [
        {
          "internalType": "uint256",
          "name": "_candidateIndex",
          "type": "uint256"
        }
      ],
      "name": "vote",
      "outputs": [],
      "stateMutability": "nonpayable",
      "type": "function"
    },
    {
      "inputs": [
        {
          "internalType": "address",
          "name": "",
          "type": "address"
        }
      ],
      "name": "voters",
      "outputs": [
        {
          "internalType": "string",
          "name": "name",
          "type": "string"
        },
        {
          "internalType": "uint256",
          "name": "age",
          "type": "uint256"
        },
        {
          "internalType": "address",
          "name": "voterAddress",
          "type": "address"
        },
        {
          "internalType": "bool",
          "name": "hasVoted",
          "type": "bool"
        }
      ],
      "stateMutability": "view",
      "type": "function"
    },
    {
      "inputs": [
        {
          "internalType": "uint256",
          "name": "",
          "type": "uint256"
        }
      ],
      "name": "votersByIndex",
      "outputs": [
        {
          "internalType": "address",
          "name": "",
          "type": "address"
        }
      ],
      "stateMutability": "view",
      "type": "function"
    },
    {
      "inputs": [],
      "name": "votingEnd",
      "outputs": [
        {
          "internalType": "uint256",
          "name": "",
          "type": "uint256"
        }
      ],
      "stateMutability": "view",
      "type": "function"
    },
    {
      "inputs": [],
      "name": "votingStart",
      "outputs": [
        {
          "internalType": "uint256",
          "name": "",
          "type": "uint256"
        }
      ],
      "stateMutability": "view",
      "type": "function"
    }
  ],
  "bytecode": "0x60806040523480156200001157600080fd5b50604051620023943803806200239483398181016040528101906200003791906200018f565b600082116200007d576040517f08c379a00000000000000000000000000000000000000000000000000000000081526004016200007490620002a0565b60405180910390fd5b600073ffffffffffffffffffffffffffffffffffffffff168173ffffffffffffffffffffffffffffffffffffffff161415620000f0576040517f08c379a0000000000000000000000000000000000000000000000000000000008152600401620000e790620002c2565b60405180910390fd5b806000806101000a81548173ffffffffffffffffffffffffffffffffffffffff021916908373ffffffffffffffffffffffffffffffffffffffff16021790555042600481905550603c8262000146919062000352565b42620001539190620002f5565b600581905550505062000454565b600081519050620001728162000420565b92915050565b60008151905062000189816200043a565b92915050565b60008060408385031215620001a357600080fd5b6000620001b38582860162000178565b9250506020620001c68582860162000161565b9150509250929050565b6000620001df602983620002e4565b91507f566f74696e67206475726174696f6e206d75737420626520677265617465722060008301527f7468616e207a65726f00000000000000000000000000000000000000000000006020830152604082019050919050565b600062000247602483620002e4565b91507f41646d696e20616464726573732063616e6e6f74206265207a65726f2061646460008301527f72657373000000000000000000000000000000000000000000000000000000006020830152604082019050919050565b60006020820190508181036000830152620002bb81620001d0565b9050919050565b60006020820190508181036000830152620002dd8162000238565b9050919050565b600082825260208201905092915050565b60006200030282620003e7565b91506200030f83620003e7565b9250827fffffffffffffffffffffffffffffffffffffffffffffffffffffffffffffffff03821115620003475762000346620003f1565b5b828201905092915050565b60006200035f82620003e7565b91506200036c83620003e7565b9250817fffffffffffffffffffffffffffffffffffffffffffffffffffffffffffffffff0483118215151615620003a857620003a7620003f1565b5b828202905092915050565b6000620003c082620003c7565b9050919050565b600073ffffffffffffffffffffffffffffffffffffffff82169050919050565b6000819050919050565b7f4e487b7100000000000000000000000000000000000000000000000000000000600052601160045260246000fd5b6200042b81620003b3565b81146200043757600080fd5b50565b6200044581620003e7565b81146200045157600080fd5b50565b611f3080620004646000396000f3fe608060405234801561001057600080fd5b506004361061010b5760003560e01c80635bcfadb5116100a2578063a9be654a11610071578063a9be654a1461029c578063e74f9252146102ba578063efb98bcf146102d6578063f2dc48f0146102f4578063f851a440146103245761010b565b80635bcfadb5146102115780635f5300ff1461022d57806385a386351461024b578063a3ec138d146102695761010b565b80633477ee2e116100de5780633477ee2e1461018657806335bbe70e146101b95780634b841591146101d7578063581c281c146101f35761010b565b80630121b93f14610110578063101158af1461012c5780632e6997fe1461014a57806330a5634714610168575b600080fd5b61012a60048036038101906101259190611451565b610342565b005b6101346105a4565b6040516101419190611b2a565b60405180910390f35b6101526105aa565b60405161015f919061194c565b60405180910390f35b610170610741565b60405161017d9190611b2a565b60405180910390f35b6101a0600480360381019061019b9190611451565b61074e565b6040516101b094939291906119f7565b60405180910390f35b6101c161089e565b6040516101ce919061196e565b60405180910390f35b6101f160048036038101906101ec919061136b565b610b5d565b005b6101fb610dfa565b6040516102089190611990565b60405180910390f35b61022b60048036038101906102269190611451565b610e09565b005b610235610eb8565b6040516102429190611b2a565b60405180910390f35b610253610ebe565b6040516102609190611b2a565b60405180910390f35b610283600480360381019061027e9190611342565b610ec4565b60405161029394939291906119ab565b60405180910390f35b6102a4610fa9565b6040516102b19190611b2a565b60405180910390f35b6102d460048036038101906102cf91906113d2565b610fb3565b005b6102de6110e3565b6040516102eb9190611b2a565b60405180910390f35b61030e60048036038101906103099190611451565b611150565b60405161031b9190611931565b60405180910390f35b61032c61118f565b6040516103399190611931565b60405180910390f35b6000600260003373ffffffffffffffffffffffffffffffffffffffff1673ffffffffffffffffffffffffffffffffffffffff16815260200190815260200160002060010154116103c7576040517f08c379a00000000000000000000000000000000000000000000000000000000081526004016103be90611a6a565b60405180910390fd5b6103cf6111b3565b61040e576040517f08c379a000000000000000000000000000000000000000000000000000000000815260040161040590611aca565b60405180910390fd5b600260003373ffffffffffffffffffffffffffffffffffffffff1673ffffffffffffffffffffffffffffffffffffffff16815260200190815260200160002060020160149054906101000a900460ff161561049e576040517f08c379a000000000000000000000000000000000000000000000000000000000815260040161049590611b0a565b60405180910390fd5b60018054905081106104e5576040517f08c379a00000000000000000000000000000000000000000000000000000000081526004016104dc90611aaa565b60405180910390fd5b6001818154811061051f577f4e487b7100000000000000000000000000000000000000000000000000000000600052603260045260246000fd5b9060005260206000209060040201600301600081548092919061054190611de5565b91905055506001600260003373ffffffffffffffffffffffffffffffffffffffff1673ffffffffffffffffffffffffffffffffffffffff16815260200190815260200160002060020160146101000a81548160ff02191690831515021790555050565b60045481565b60606001805480602002602001604051908101604052809291908181526020016000905b82821015610738578382906000526020600020906004020160405180608001604052908160008201805461060190611db3565b80601f016020809104026020016040519081016040528092919081815260200182805461062d90611db3565b801561067a5780601f1061064f5761010080835404028352916020019161067a565b820191906000526020600020905b81548152906001019060200180831161065d57829003601f168201915b505050505081526020016001820154815260200160028201805461069d90611db3565b80601f01602080910402602001604051908101604052809291908181526020018280546106c990611db3565b80156107165780601f106106eb57610100808354040283529160200191610716565b820191906000526020600020905b8154815290600101906020018083116106f957829003601f168201915b50505050508152602001600382015481525050815260200190600101906105ce565b50505050905090565b6000600180549050905090565b6001818154811061075e57600080fd5b906000526020600020906004020160009150905080600001805461078190611db3565b80601f01602080910402602001604051908101604052809291908181526020018280546107ad90611db3565b80156107fa5780601f106107cf576101008083540402835291602001916107fa565b820191906000526020600020905b8154815290600101906020018083116107dd57829003601f168201915b50505050509080600101549080600201805461081590611db3565b80601f016020809104026020016040519081016040528092919081815260200182805461084190611db3565b801561088e5780601f106108635761010080835404028352916020019161088e565b820191906000526020600020905b81548152906001019060200180831161087157829003601f168201915b5050505050908060030154905084565b6060600060065467ffffffffffffffff8111156108e4577f4e487b7100000000000000000000000000000000000000000000000000000000600052604160045260246000fd5b60405190808252806020026020018201604052801561091d57816020015b61090a6111cd565b8152602001906001900390816109025790505b5090506000805b600654811015610b545760006003828154811061096a577f4e487b7100000000000000000000000000000000000000000000000000000000600052603260045260246000fd5b9060005260206000200160009054906101000a900473ffffffffffffffffffffffffffffffffffffffff169050600260008273ffffffffffffffffffffffffffffffffffffffff1673ffffffffffffffffffffffffffffffffffffffff1681526020019081526020016000206040518060800160405290816000820180546109f190611db3565b80601f0160208091040260200160405190810160405280929190818152602001828054610a1d90611db3565b8015610a6a5780601f10610a3f57610100808354040283529160200191610a6a565b820191906000526020600020905b815481529060010190602001808311610a4d57829003601f168201915b50505050508152602001600182015481526020016002820160009054906101000a900473ffffffffffffffffffffffffffffffffffffffff1673ffffffffffffffffffffffffffffffffffffffff1673ffffffffffffffffffffffffffffffffffffffff1681526020016002820160149054906101000a900460ff161515151581525050848481518110610b27577f4e487b7100000000000000000000000000000000000000000000000000000000600052603260045260246000fd5b60200260200101819052508280610b3d90611de5565b935050508080610b4c90611de5565b915050610924565b50819250505090565b60008054906101000a900473ffffffffffffffffffffffffffffffffffffffff1673ffffffffffffffffffffffffffffffffffffffff163373ffffffffffffffffffffffffffffffffffffffff1614610beb576040517f08c379a0000000000000000000000000000000000000000000000000000000008152600401610be290611a4a565b60405180910390fd5b6000600260008373ffffffffffffffffffffffffffffffffffffffff1673ffffffffffffffffffffffffffffffffffffffff1681526020019081526020016000206001015414610c70576040517f08c379a0000000000000000000000000000000000000000000000000000000008152600401610c6790611aea565b60405180910390fd5b60405180608001604052808481526020018381526020018273ffffffffffffffffffffffffffffffffffffffff16815260200160001515815250600260008373ffffffffffffffffffffffffffffffffffffffff1673ffffffffffffffffffffffffffffffffffffffff1681526020019081526020016000206000820151816000019080519060200190610d0592919061120d565b506020820151816001015560408201518160020160006101000a81548173ffffffffffffffffffffffffffffffffffffffff021916908373ffffffffffffffffffffffffffffffffffffffff16021790555060608201518160020160146101000a81548160ff0219169083151502179055509050506003819080600181540180825580915050600190039060005260206000200160009091909190916101000a81548173ffffffffffffffffffffffffffffffffffffffff021916908373ffffffffffffffffffffffffffffffffffffffff16021790555060066000815480929190610df090611de5565b9190505550505050565b6000610e046111b3565b905090565b60008054906101000a900473ffffffffffffffffffffffffffffffffffffffff1673ffffffffffffffffffffffffffffffffffffffff163373ffffffffffffffffffffffffffffffffffffffff1614610e97576040517f08c379a0000000000000000000000000000000000000000000000000000000008152600401610e8e90611a4a565b60405180910390fd5b603c81610ea49190611c9b565b42610eaf9190611c45565b60058190555050565b60065481565b60055481565b6002602052806000526040600020600091509050806000018054610ee790611db3565b80601f0160208091040260200160405190810160405280929190818152602001828054610f1390611db3565b8015610f605780601f10610f3557610100808354040283529160200191610f60565b820191906000526020600020905b815481529060010190602001808311610f4357829003601f168201915b5050505050908060010154908060020160009054906101000a900473ffffffffffffffffffffffffffffffffffffffff16908060020160149054906101000a900460ff16905084565b6000600654905090565b60008054906101000a900473ffffffffffffffffffffffffffffffffffffffff1673ffffffffffffffffffffffffffffffffffffffff163373ffffffffffffffffffffffffffffffffffffffff1614611041576040517f08c379a000000000000000000000000000000000000000000000000000000000815260040161103890611a4a565b60405180910390fd5b600160405180608001604052808581526020018481526020018381526020016000815250908060018154018082558091505060019003906000526020600020906004020160009091909190915060008201518160000190805190602001906110aa92919061120d565b506020820151816001015560408201518160020190805190602001906110d192919061120d565b50606082015181600301555050505050565b600060045442101561112a576040517f08c379a000000000000000000000000000000000000000000000000000000000815260040161112190611a8a565b60405180910390fd5b600554421061113c576000905061114d565b4260055461114a9190611cf5565b90505b90565b6003818154811061116057600080fd5b906000526020600020016000915054906101000a900473ffffffffffffffffffffffffffffffffffffffff1681565b60008054906101000a900473ffffffffffffffffffffffffffffffffffffffff1681565b600060045442101580156111c8575060055442105b905090565b60405180608001604052806060815260200160008152602001600073ffffffffffffffffffffffffffffffffffffffff1681526020016000151581525090565b82805461121990611db3565b90600052602060002090601f01602090048101928261123b5760008555611282565b82601f1061125457805160ff1916838001178555611282565b82800160010185558215611282579182015b82811115611281578251825591602001919060010190611266565b5b50905061128f9190611293565b5090565b5b808211156112ac576000816000905550600101611294565b5090565b60006112c36112be84611b76565b611b45565b9050828152602081018484840111156112db57600080fd5b6112e6848285611d71565b509392505050565b6000813590506112fd81611ecc565b92915050565b600082601f83011261131457600080fd5b81356113248482602086016112b0565b91505092915050565b60008135905061133c81611ee3565b92915050565b60006020828403121561135457600080fd5b6000611362848285016112ee565b91505092915050565b60008060006060848603121561138057600080fd5b600084013567ffffffffffffffff81111561139a57600080fd5b6113a686828701611303565b93505060206113b78682870161132d565b92505060406113c8868287016112ee565b9150509250925092565b6000806000606084860312156113e757600080fd5b600084013567ffffffffffffffff81111561140157600080fd5b61140d86828701611303565b935050602061141e8682870161132d565b925050604084013567ffffffffffffffff81111561143b57600080fd5b61144786828701611303565b9150509250925092565b60006020828403121561146357600080fd5b60006114718482850161132d565b91505092915050565b60006114868383611846565b905092915050565b600061149a83836118b0565b905092915050565b6114ab81611d29565b82525050565b6114ba81611d29565b82525050565b60006114cb82611bc6565b6114d58185611c01565b9350836020820285016114e785611ba6565b8060005b858110156115235784840389528151611504858261147a565b945061150f83611be7565b925060208a019950506001810190506114eb565b50829750879550505050505092915050565b600061154082611bd1565b61154a8185611c12565b93508360208202850161155c85611bb6565b8060005b858110156115985784840389528151611579858261148e565b945061158483611bf4565b925060208a01995050600181019050611560565b50829750879550505050505092915050565b6115b381611d3b565b82525050565b6115c281611d3b565b82525050565b60006115d382611bdc565b6115dd8185611c23565b93506115ed818560208601611d80565b6115f681611ebb565b840191505092915050565b600061160c82611bdc565b6116168185611c34565b9350611626818560208601611d80565b61162f81611ebb565b840191505092915050565b6000611647602583611c34565b91507f4f6e6c79207468652061646d696e2063616e2063616c6c20746869732066756e60008301527f6374696f6e0000000000000000000000000000000000000000000000000000006020830152604082019050919050565b60006116ad602d83611c34565b91507f4f6e6c79207265676973746572656420766f746572732063616e2063616c6c2060008301527f746869732066756e6374696f6e000000000000000000000000000000000000006020830152604082019050919050565b6000611713601a83611c34565b91507f566f74696e6720686173206e6f742073746172746564207965740000000000006000830152602082019050919050565b6000611753601783611c34565b91507f496e76616c69642063616e64696461746520696e6465780000000000000000006000830152602082019050919050565b6000611793601c83611c34565b91507f566f74696e67206973206e6f742063757272656e746c79206f70656e000000006000830152602082019050919050565b60006117d3601b83611c34565b91507f566f74657220697320616c7265616479207265676973746572656400000000006000830152602082019050919050565b6000611813601683611c34565b91507f596f75206861766520616c726561647920766f746564000000000000000000006000830152602082019050919050565b6000608083016000830151848203600086015261186382826115c8565b91505060208301516118786020860182611913565b506040830151848203604086015261189082826115c8565b91505060608301516118a56060860182611913565b508091505092915050565b600060808301600083015184820360008601526118cd82826115c8565b91505060208301516118e26020860182611913565b5060408301516118f560408601826114a2565b50606083015161190860608601826115aa565b508091505092915050565b61191c81611d67565b82525050565b61192b81611d67565b82525050565b600060208201905061194660008301846114b1565b92915050565b6000602082019050818103600083015261196681846114c0565b905092915050565b600060208201905081810360008301526119888184611535565b905092915050565b60006020820190506119a560008301846115b9565b92915050565b600060808201905081810360008301526119c58187611601565b90506119d46020830186611922565b6119e160408301856114b1565b6119ee60608301846115b9565b95945050505050565b60006080820190508181036000830152611a118187611601565b9050611a206020830186611922565b8181036040830152611a328185611601565b9050611a416060830184611922565b95945050505050565b60006020820190508181036000830152611a638161163a565b9050919050565b60006020820190508181036000830152611a83816116a0565b9050919050565b60006020820190508181036000830152611aa381611706565b9050919050565b60006020820190508181036000830152611ac381611746565b9050919050565b60006020820190508181036000830152611ae381611786565b9050919050565b60006020820190508181036000830152611b03816117c6565b9050919050565b60006020820190508181036000830152611b2381611806565b9050919050565b6000602082019050611b3f6000830184611922565b92915050565b6000604051905081810181811067ffffffffffffffff82111715611b6c57611b6b611e8c565b5b8060405250919050565b600067ffffffffffffffff821115611b9157611b90611e8c565b5b601f19601f8301169050602081019050919050565b6000819050602082019050919050565b6000819050602082019050919050565b600081519050919050565b600081519050919050565b600081519050919050565b6000602082019050919050565b6000602082019050919050565b600082825260208201905092915050565b600082825260208201905092915050565b600082825260208201905092915050565b600082825260208201905092915050565b6000611c5082611d67565b9150611c5b83611d67565b9250827fffffffffffffffffffffffffffffffffffffffffffffffffffffffffffffffff03821115611c9057611c8f611e2e565b5b828201905092915050565b6000611ca682611d67565b9150611cb183611d67565b9250817fffffffffffffffffffffffffffffffffffffffffffffffffffffffffffffffff0483118215151615611cea57611ce9611e2e565b5b828202905092915050565b6000611d0082611d67565b9150611d0b83611d67565b925082821015611d1e57611d1d611e2e565b5b828203905092915050565b6000611d3482611d47565b9050919050565b60008115159050919050565b600073ffffffffffffffffffffffffffffffffffffffff82169050919050565b6000819050919050565b82818337600083830152505050565b60005b83811015611d9e578082015181840152602081019050611d83565b83811115611dad576000848401525b50505050565b60006002820490506001821680611dcb57607f821691505b60208210811415611ddf57611dde611e5d565b5b50919050565b6000611df082611d67565b91507fffffffffffffffffffffffffffffffffffffffffffffffffffffffffffffffff821415611e2357611e22611e2e565b5b600182019050919050565b7f4e487b7100000000000000000000000000000000000000000000000000000000600052601160045260246000fd5b7f4e487b7100000000000000000000000000000000000000000000000000000000600052602260045260246000fd5b7f4e487b7100000000000000000000000000000000000000000000000000000000600052604160045260246000fd5b6000601f19601f8301169050919050565b611ed581611d29565b8114611ee057600080fd5b50565b611eec81611d67565b8114611ef757600080fd5b5056fea2646970667358221220824c9ea81087b3df459f30a983e3e5c86ab232993d586f1e1890aa377b02645a64736f6c63430008000033",
  "linkReferences": {},
  "deployedLinkReferences": {}
}